:020000040000FA
:100000000C944F050C9477050C9477050C947705A8
:100010000C9477050C9477050C9477050C94770570
:100020000C9477050C9477050C9477050C94770560
:100030000C9477050C9477050C9477050C94770550
:100040000C9456170C9477050C9424170C94FE16F8
:100050000C9477050C9477050C9477050C94770530
:100060000C94A0170C947705000103070F1F3F7F26
:100070000080C0E0F0F8FCFE00000000003E5B4F96
:100080005B3E3E6B4F6B3E1C3E7C3E1C183C7E3CF8
:10009000181C577D571C1C5E7F5E1C00183C180006
:1000A000FFE7C3E7FF0018241800FFE7DBE7FF3096
:1000B000483A060E2629792926407F050507407F04
:1000C00005253F5A3CE73C5A7F3E1C1C08081C1C77
:1000D0003E7F14227F22145F5F005F5F06097F016D
:1000E0007F006689956A606060606094A2FFA29458
:1000F00008047E040810207E201008082A1C080826
:100100001C2A08081E101010100C1E0C1E0C303873
:100110003E3830060E3E0E06000000000000005F74
:1001200000000007000700147F147F14242A7F2A90
:100130001223130864623649562050000807030052
:10014000001C2241000041221C002A1C7F1C2A089E
:10015000083E080800807030000808080808000001
:1001600060600020100804023E5149453E00427F75
:10017000400072494949462141494D331814127FC4
:100180001027454545393C4A494931412111090764
:100190003649494936464949291E000014000000E5
:1001A00040340000000814224114141414140041B7
:1001B00022140802015909063E415D594E7C121174
:1001C000127C7F494949363E414141227F414141AC
:1001D0003E7F494949417F090909013E4141517327
:1001E0007F0808087F00417F41002040413F017F98
:1001F000081422417F404040407F021C027F7F0460
:1002000008107F3E4141413E7F090909063E4151A8
:10021000215E7F09192946264949493203017F0198
:10022000033F4040403F1F2040201F3F4038403F99
:10023000631408146303047804036159494D4300AF
:100240007F4141410204081020004141417F0402E6
:10025000010204404040404000030708002054547D
:1002600078407F284444383844444428384444285B
:100270007F385454541800087E090218A4A49C78AE
:100280007F0804047800447D40002040403D007F0A
:100290001028440000417F40007C047804787C08EA
:1002A0000404783844444438FC18242418182424BE
:1002B00018FC7C08040408485454542404043F44A3
:1002C000243C4040207C1C2040201C3C4030403CD2
:1002D00044281028444C9090907C4464544C440032
:1002E0000836410000007700000041360800020196
:1002F0000204023C2623263C1EA1A161123A404082
:10030000207A3854545559215555794122545478FE
:1003100042215554784020545579400C1E52721297
:100320003955555559395454545939555454580020
:1003300000457C410002457D420001457C407D1224
:1003400011127DF0282528F07C5455450020545486
:100350007C547C0A097F4932494949323A44444431
:100360003A324A4848303A4141217A3A424020786C
:10037000009DA0A07D3D4242423D3D4040403D3C6D
:1003800024FF2424487E4943662B2FFC2F2BFF0992
:1003900029F620C0887E0903205454794100004486
:1003A0007D413048484A32384040227A007A0A0A71
:1003B000727D0D19317D2629292F282629292926E4
:1003C00030484D4020380808080808080808382F29
:1003D00010C8ACBA2F102834FA00007B00000814B3
:1003E0002A142222142A14085500550055AA55AA89
:1003F00055AAFF55FF55FF000000FF00101010FF29
:1004000000141414FF001010FF00FF1010F010F083
:10041000141414FC001414F700FF0000FF00FF1474
:1004200014F404FC141417101F10101F101F1414C0
:10043000141F00101010F0000000001F101010100A
:100440001F10101010F010000000FF1010101010FE
:1004500010101010FF10000000FF140000FF00FF3C
:1004600000001F10170000FC04F4141417101714D8
:1004700014F404F40000FF00F714141414141414FA
:10048000F700F7141414171410101F101F1414146D
:10049000F4141010F010F000001F101F0000001FD7
:1004A00014000000FC140000F010F01010FF10FF0A
:1004B000141414FF141010101F00000000F010FF9F
:1004C000FFFFFFFFF0F0F0F0F0FFFFFF0000000083
:1004D00000FFFF0F0F0F0F0F3844443844FC4A4A07
:1004E0004A347E02020606027E027E0263554941BC
:1004F000633844443C04407E201E2006027E0202F3
:1005000099A5E7A5991C2A492A1C4C7201724C3006
:100510004A4D4D303048784830BC625A463D3E49DD
:100520004949007E0101017E2A2A2A2A2A44445F81
:10053000444440514A444040444A51400000FF0175
:1005400003E080FF000008086B6B08361236243683
:10055000060F090F060000181800000010100030E8
:1005600040FF0101001F01011E00191D1712003C70
:100570003C3C3C00000000000000000800020100BC
:10058000000304070000000000000000DB40A4A6F8
:100590002EAF2000A1C8D300408DAED580A80000AA
:1005A000600000000000000000000000000000E00B
:1005B0000000000000000000000000000001E0005A
:1005C00000000000000000000000000001F000003A
:1005D000000000000000000000000003F000000028
:1005E0000000000000000000000007F00000000014
:1005F00000000000000000000007F80000000000FC
:1006000000000000000000000FF800000003C00020
:100610007E000001E0007F0FF800000003C000FE34
:10062000000001E000FFEFF800000003C000FE0042
:100630000001E000FFFFF800000003C000F0000030
:10064000000F007FFE7FC0000003C000F00000002C
:100650000F003FFE7FF83FF1FBCFFCFEF3BC3DEF08
:10066000E01FFE7FFF7FFBFFDFFEFEFFBC3DEFE0F4
:100670001FC6FFFF7FFBFFDFFEFEFFBC3DEFE00F6D
:10068000E3C7FE787BC3DE1EF0FFBC3DEF0007FF33
:1006900087FC787BC3DE1EF0F83C3DEF0001FFFFD6
:1006A000F0007BC3C01EF0F03C3DEF0001F37FE0A3
:1006B0003FFBC3CFFEF0F03C3DEF0003E33F807F04
:1006C000FBC3DFFEF0F03C3DEF0007E73C00787B2A
:1006D000C3DE1EF0F03C3DEF0007FFBE00787BC399
:1006E000DE1EF0F03C3DEF0007FFFE00787BC3DE2E
:1006F0001EF0F03C3DEF000FFFFE007FFBFFDFFE32
:10070000F0F03FFDEFE00FFFFF007FFBFFDFFEF0AB
:10071000F03FFDEFE00FF9FF003E79F9CF9EF0F0DA
:100720001F3DE7E01FF1FF00000000000000000097
:100730000000001F80FF007FFFFFFFFFFFFFFFFFA4
:10074000FFE01C007F007FFFFFFFFEB46D888D1867
:10075000E000001F007FFFFFFFFE95AD7DB577E055
:1007600000000F007FFFFFFFFEA5AD9D8D19E0008B
:100770000006007FFFFFFFFEB5ADEDB57EE0000097
:100780000000000180000000000000000000038065
:1007900000000000000000000007C0000000000092
:1007A0000000000007C00000000000000000000F73
:1007B000C00000000000000000001FE0000000007A
:1007C00000000000001FE00000000000000000002A
:1007D0003FE00000000000000000003FF0000000CB
:1007E0000000000000007FF0000000000000001F7B
:1007F000F87FF0000000000000003FFE7FF00000E6
:1008000000000000003FFF7FF0000000000000003B
:100810001FFFFBE0000000000000000FFFF9FFC019
:100820000000000000000FFFF9FFF80000000000CA
:100830000007FFF1FFFF00000000000003FC73FF52
:10084000FF80000000000001FE3FFFFF800000006D
:10085000000000FF1E0FFF000000000000007FFEF0
:100860001FFC000000000000003FFFFFF800000038
:10087000000000000FDFFFE0000000000000001F8C
:1008800019FFC0000000000000003F3CFF00000016
:1008900000000000007E7CF8000000000000000066
:1008A0007FFE7C0000000000000000FFFFFC000055
:1008B000000000000000FFFFFE000000000000003C
:1008C00000FFFFFE0000000000000001FFEFFE003F
:1008D00000000000000001FFCFFE0000000000004B
:1008E0000003FF07FE0000000000000003FC07FEFD
:1008F0000000000000000003F003FE000000000004
:100900000000018000FE0000000000000000000068
:100910007E000000000000000000003E000000001B
:100920000000000000000C00000000000007800034
:10093000FC000003C0000000078001FC000003C0B1
:10094000000000078001FC000003C00000000780D9
:1009500001E00000001E000000078001E000000030
:100960001E007FE3F79FF9FDE7787BDFC0FFF7FF0D
:10097000BFFDFDFF787BDFC0FFF7FFBFFDFDFF7808
:100980007BDFC0F0F787BC3DE1FF787BDE00F0F74E
:1009900087BC3DE1F0787BDE0000F787803DE1E039
:1009A000787BDE007FF7879FFDE1E0787BDE00FF4C
:1009B000F787BFFDE1E0787BDE00F0F787BC3DE123
:1009C000E0787BDE00F0F787BC3DE1E0787BDE007D
:1009D000F0F787BC3DE1E0787BDE00FFF7FFBFFD6D
:1009E000E1E07FFBDFC0FFF7FFBFFDE1E07FFBDF62
:1009F000C07CF3F39F3DE1E03E7BCFC000000000F0
:100A000000000000000000FFFFFFFFFFFFFFFFFFEF
:100A1000FFC0FFFFFFFFFD68DB111A31C0FFFFFFC2
:100A2000FFFD2B5AFB6AEFC0FFFFFFFFFD4B5B3B57
:100A30001A33C0FFFFFFFFFD6B5BDB6AFDC0535342
:100A4000443133303620616C6C6F636174696F6E52
:100A5000206661696C6564000000000025002800C4
:100A60002B0000000000240027002A0004040404D6
:100A70000404040402020202020203030303030348
:100A80000102040810204080010204081020010225
:100A9000040810202200FF210000B818891D11242D
:100AA0001FBECFEFD8E0DEBFCDBF11E0A0E0B1E0C8
:100AB000E4EAF2E402C005900D92A43CB107D9F734
:100AC00023E0A4ECB1E001C01D92A737B207E1F723
:100AD00015E0CEE4D5E004C02197FE010E940E206F
:100AE000CD34D107C9F70E9443190C9445210C94C9
:100AF0000000982F20917D0281E0213208F03FC054
:100B0000809159028111FCCF80917C0232E03093B8
:100B10005902909358029FEF9093570210925602F9
:100B200020935502ACE5B2E0E5E3F2E090E0291352
:100B30002DC01092340290913402880F892B80933B
:100B4000340280913302813029F510923302809172
:100B500034028093BB0085EC8093BC0080915902E5
:100B60008230E1F3809157028F3FB1F080915702BC
:100B70008032A1F080915702803391F084E010928E
:100B80005B0210927D0210925A0208953D913193BA
:100B90009F5FCDCF85EEE0CF80E0F1CF82E0EFCF59
:100BA00083E0EDCFFC0120812EBD0DB407FEFDCF0B
:100BB0002EB5FC012083089590E0FC01E058F54F2C
:100BC00024918459954FFC018491882399F090E0F9
:100BD000880F991FFC01EE59F54FA591B491FC01C6
:100BE000E85AF54F859194918FB7F894EC91E22BE8
:100BF000EC938FBF08950895AF92BF92CF92DF928A
:100C0000EF92FF920F931F93CF93DF936C017B01C1
:100C10008B01040F151FEB015E01AE18BF08C01752
:100C2000D10759F06991D601ED91FC910190F081C5
:100C3000E02DC6010995892B79F7C501DF91CF9188
:100C40001F910F91FF90EF90DF90CF90BF90AF90EA
:100C50000895FC01538D448D252F30E0842F90E0C2
:100C6000821B930B541710F0CF96089501970895A7
:100C7000FC01918D828D981761F0A28DAE0FBF2F70
:100C8000B11D5D968C91928D9F5F9F73928F90E0C6
:100C900008958FEF9FEF0895FC01918D828D981735
:100CA00031F0828DE80FF11D858D90E008958FEF72
:100CB0009FEF0895FC01918D228D892F90E0805C3B
:100CC0009F4F821B91098F73992708958EE792E0B9
:100CD0000E945A0621E0892B09F420E0822F089512
:100CE00080E090E0892B29F00E94660681110C9427
:100CF00000000895FC01A48DA80FB92FB11DA35ABF
:100D0000BF4F2C91848D90E001968F739927848F2B
:100D1000A689B7892C93A089B1898C91837080644E
:100D20008C93938D848D981306C00288F389E02DEF
:100D300080818F7D80830895EF92FF920F931F93A0
:100D4000CF93DF93EC0181E0888F9B8D8C8D98137E
:100D50001AC0E889F989808185FF15C09FB7F8948A
:100D6000EE89FF896083E889F989808183708064D6
:100D700080839FBF81E090E0DF91CF911F910F9121
:100D8000FF90EF900895F62E0B8D10E00F5F1F4F30
:100D90000F731127E02E8C8D8E110CC00FB607FC3F
:100DA000FACFE889F989808185FFF5CFCE010E94CD
:100DB0007A06F1CFEB8DEC0FFD2FF11DE35AFF4FBB
:100DC000F0829FB7F8940B8FEA89FB89808180625B
:100DD000CFCFCF93DF93EC01888D8823B9F0AA8918
:100DE000BB89E889F9898C9185FD03C0808186FDE6
:100DF0000DC00FB607FCF7CF8C9185FFF2CF808135
:100E000085FFEDCFCE010E947A06E9CFDF91CF9129
:100E1000089590E0FC01E858FA4F2491FC01E05855
:100E2000F54F3491FC01E459F54FE491EE23C9F0FC
:100E3000222339F0233001F1A8F4213019F12230B6
:100E400029F1F0E0EE0FFF1FE85AF54FA591B4919C
:100E50008FB7F894EC91611126C030953E233C93F6
:100E60008FBF08952730A9F02830C9F0243049F702
:100E7000809180008F7D03C0809180008F77809368
:100E80008000DFCF84B58F7784BDDBCF84B58F7DC5
:100E9000FBCF8091B0008F778093B000D2CF80914C
:100EA000B0008F7DF9CF3E2BDACF8230910538F03C
:100EB000880F991F880F991F05970197F1F70895DB
:100EC0009F92AF92BF92CF92DF92EF92FF920F93D9
:100ED0001F93CF93DF93EC016B018885998511E017
:100EE000892B09F010E8F601A0808A2D812399242E
:100EF00093948111912C2C813D814E815F8160E220
:100F000071EA87E090E00E94EC1F022FB12CE22EE4
:100F1000F12C002319F0C7010E9455078A85877FAD
:100F200009F04FC08D858F3F89F09A2D912381E084
:100F300009F480E0891551F0EF85F8898F899923AC
:100F4000D1F19081892B808399249394E989FA893E
:100F50008081998D892B8083002319F0C7010E941D
:100F600055078E858F3F39F0EB89FC898081988DFC
:100F7000892309F0B12AE989FA899081898D8095C0
:100F8000892380838E858F3F11F0F601B08288859A
:100F90009985892B09F044C0110F1111BACFDF9147
:100FA000CF911F910F91FF90EF90DF90CF90BF9066
:100FB000AF909F9008959081809589238083912C94
:100FC000C5CFE989FA898081998D892B8083002397
:100FD00019F0C7010E9455078D858F3F49F0EF85B5
:100FE000F8898F899A2D9123B9F09081892B80837C
:100FF000E989FA899081898D8095892380838E85FE
:101000008F3F09F4BFCFEB89FC898081988D8923BC
:1010100009F4B8CFB12AB6CF908180958923E7CF64
:101020001695BBCF3FB7F894809128029091290282
:10103000A0912A02B0912B0226B5A89B05C02F3F94
:1010400019F00196A11DB11D3FBFBA2FA92F982FEE
:101050008827BC01CD01620F711D811D911D42E0E9
:10106000660F771F881F991F4A95D1F708958F92B1
:101070009F92AF92BF92CF92DF92EF92FF924B017D
:101080005C010E9412086B017C010E9412086C191D
:101090007D098E099F09683E734081059105A8F37B
:1010A00021E0821A9108A108B10888EEC80E83E0F9
:1010B000D81EE11CF11C81149104A104B10429F78C
:1010C000FF90EF90DF90CF90BF90AF909F908F9068
:1010D00008950895FC016370668B84819581268153
:1010E0003781613039F0633029F091878087338709
:1010F00022870895318720879387828708952F92CA
:101100003F924F925F926F927F928F929F92AF9297
:10111000BF92CF92DF92EF92FF920F931F93CF93E4
:10112000DF93CDB7DEB76A970FB6F894DEBF0FBE78
:10113000CDBF9A8F898F7A8369834A01D22E18870F
:101140000F833701BC2CDC0159962D913C915A97A5
:101150002115310509F015C118968D919C911997AB
:10116000681779070CF0D7C11A968D919C91481792
:1011700059070CF0D0C14C2C512CB6E0CB9E600D21
:10118000711D11247C876B87161617060CF0C3C1DE
:10119000EA2DF0E0FA87E98793E0EE0FFF1F9A95BA
:1011A000E1F7F88BEF87CF01840F951F181619060A
:1011B0000CF0B1C1A98DBA8D58968C91811104C0E3
:1011C000BFEABD1508F4D394A98DBA8DED91FC91B9
:1011D00011970284F385E02DCD010995B5E0DB9EE2
:1011E000C0011124E981FA81FC83EB83312C212C8D
:1011F0009C0128583F4F388F2F8B4A2D50E05E8B33
:101200004D8BEF89F88DE20DF31D44919E828D8206
:10121000D12CC12C69817A81620D731D7A8B698B07
:10122000842F90E09C8B8B8BE98DFA8DA081B1810E
:1012300040FF82C0F1E0BF126FC0AF126DC01C96BC
:10124000ED91FC912F813885A4014C0D5D1D6989BC
:101250007A89898D9A8D0995EB89FC89F595E795B1
:101260004E2F5FEFC51AD50A6D817E818D899E89CB
:10127000680F791F7E836D8398E0C916D10481F6CB
:10128000AFEF2A1A3A0AEB81FC81E40DF51DFC83CD
:10129000EB83F5E02F16310409F0B3CF2F813885A9
:1012A00026153705B9F0A98DBA8DED91FC91B1E005
:1012B000BB1257C0AB1255C069817A816B5F7F4FFB
:1012C0000088F189E02D830128E030E0A401898DB8
:1012D0009A8D0995A98DBA8DED91FC91119706888B
:1012E000F789E02DCD016A960FB6F894DEBF0FBEE8
:1012F000CDBFDF91CF911F910F91FF90EF90DF90C5
:10130000CF90BF90AF909F908F907F906F905F90A5
:101310004F903F902F9009941E96ED91FC91EF8095
:10132000F88409851A8592014D815E816B817C81EB
:10133000898D9A8D099590CF2F813885261537058F
:1013400009F48ACF31E0B31207C0A31205C01C967E
:10135000ED91FC91930178CF1E96ED91FC91730174
:10136000E0CF6B857C85641975090684F785E02DCF
:1013700073010F8518899201A401898D9A8D0995B1
:10138000A9CFF90134969491329745915491D91A85
:10139000B7E0DB9E400D511D1124F90125913491D8
:1013A0003C8B2B8BFA0125903490FA013296749085
:1013B00031963491398B329664903196449041E065
:1013C0004C1518F04A1508F07FC0662D062C000C4D
:1013D000770B7C836B83842D042C000C990B9E83EC
:1013E0008D83A98DBA8DED91FC9111970284F385BF
:1013F000E02DCD010995512CD12CC12CEA2DF0E026
:10140000FA87E9872B2D30E03C872B87A401440D18
:10141000511D47FC5A95588F4F8B69817A81660D13
:10142000711D67FC7A957E876D877989C71608F0EC
:1014300051CF2C2D30E04D815E81420F531FA98585
:10144000BA854A9FC0014B9F900D5A9F900D112461
:10145000FC01E80DF91DF88BEF87852D612C4F8974
:10146000588D420F531F5E8B4D8B671408F050C090
:1014700044244394480E877041F4C1010196EB89DE
:10148000FC89E20DF31DD4901C01D7FE19C0A98D73
:10149000BA8DED91FC91662D70E0B1E0BB1219C0E0
:1014A000AB1217C02D853E85620F731F0484F5852E
:1014B000E02D2F8138854D895E89898D9A8D09951A
:1014C000DD0C6394842DD1CF1E821D821C821B8271
:1014D00088CF4B815C81640F751FAB85BC856A9F8B
:1014E000C0016B9F900D7A9F900D112469817A81C4
:1014F000680F791F0684F785E02DEF80F884098551
:101500001A859D014F855889898D9A8D0995D8CF67
:10151000570CC3948ACF6A960FB6F894DEBF0FBEFD
:10152000CDBFDF91CF911F910F91FF90EF90DF9092
:10153000CF90BF90AF909F908F907F906F905F9073
:101540004F903F902F9008958F929F92AF92CF929D
:10155000EF92FF920F931F93CF93DF93EC01262F0F
:10156000898D9A8D009709F051C06A30D1F41D869B
:101570001C868D8948E0849F900111248E859F856B
:10158000820F931F9F878E8781E090E0DF91CF913C
:101590001F910F91FF90EF90CF90AF909F908F9001
:1015A00008956D3089F3CC88AD888F898823C1F088
:1015B0008C859D8536E0C39E800D911D1124488544
:1015C00059854817590764F44E855F851D861C862A
:1015D00038E0A39EC0011124840F951F9F878E873A
:1015E000EA88FB88088919894E855F856C857D8529
:1015F000CE010E947F082C898C859D8546E0249F22
:10160000800D911D11249D878C87BECF6A3069F4AF
:101610001D861C86FC013696E4912D898E859F855A
:10162000E29F800D911D1124ADCF6D3009F4ACCF38
:10163000FC0134963491631708F4A6CF3196E491F7
:10164000E61708F4A1CFFC01329685909490462FBE
:10165000431B342F47E0349F800C911C1124F4016C
:10166000329634913196E4913323A9F1EE2399F126
:10167000CC88F4013596E491AD884F89442301F17B
:101680000E2E000CFF0BE30FF11DCE9EA001CF9E8E
:10169000500D11246C857D85460F571F688579850F
:1016A000641775076CF44E855F851D861C86FC01EA
:1016B0003696E491AE9E400D511D11245F874E87F2
:1016C000EA88FB88088919894E855F856C857D8548
:1016D000CE010E947F08F4013496E4912C898C8518
:1016E0009D85E29F800D911D11248DCF6F927F9279
:1016F0008F929F92AF92BF92CF92DF92EF92FF9222
:101700000F931F93CF93DF93EC016B015A013901C3
:101710004801E881F9810284F385E02D0995E8818B
:10172000F9810288F389E02D87019301A501B601B3
:10173000CE010995A501480D591D41505109E88177
:10174000F9810288F389E02D9301B601CE01099554
:10175000E881F9810088F189E02D9401A501B601A5
:10176000CE010995C60CD71CB60161507109E881FC
:10177000F9810088F189E02D9401A501CE01099538
:10178000E881F9810688F789E02DCE01DF91CF91BC
:101790001F910F91FF90EF90DF90CF90BF90AF908F
:1017A0009F908F907F906F9009946F927F928F920D
:1017B0009F92AF92BF92CF92DF92EF92FF920F93E0
:1017C0001F93CF93DF935C01EB016A01490138015C
:1017D0008701DC01ED91FC916217730719F564161E
:1017E00075062CF0962D872D3A01C92ED82E96011C
:1017F000261937092F5F3F4F048CF58DE02DA3018B
:10180000BE01C5010995DF91CF911F910F91FF9006
:10181000EF90DF90CF90BF90AF909F908F907F9090
:101820006F9008954615570591F42617370724F051
:10183000892D4B01C22FD82F9E01281939092F5FFE
:101840003F4F068CF78DE02DA601B401DACF02845C
:10185000F385E02D0995D501ED91FC910488F5897A
:10186000E02D83019401A601BE01C5010995D501B2
:10187000ED91FC910688F789E02DC501DF91CF91AC
:101880001F910F91FF90EF90DF90CF90BF90AF909E
:101890009F908F907F906F900994EF92FF920F939B
:1018A0001F93DC011A960D911C911B9718962D9190
:1018B0003C911997ED91FC9100A0F1A1E02D7B01E5
:1018C00050E040E070E060E009951F910F91FF90BB
:1018D000EF9008954F925F926F927F928F929F92B6
:1018E000AF92BF92CF92DF92EF92FF920F931F932E
:1018F000CF93DF936C012B015A0139014801DC01C0
:10190000ED91FC910284F385E02D0995E201640CD0
:10191000751CD601ED91FC91C615D7055CF40088C5
:10192000F189E02D87019401A501BE01C601099549
:101930002196EFCF0688F789E02DC601DF91CF9180
:101940001F910F91FF90EF90DF90CF90BF90AF90DD
:101950009F908F907F906F905F904F9009948F929F
:101960009F92AF92BF92CF92DF92EF92FF920F932E
:101970001F93CF93DF93EC015B014A016901E8817A
:10198000F9810284F385E02D099595012C0D3D1D0B
:1019900021503109E881F9810488F589E02D780129
:1019A0008401A401B501CE010995E881F981068879
:1019B000F789E02DCE01DF91CF911F910F91FF901C
:1019C000EF90DF90CF90BF90AF909F908F90099451
:1019D0008F929F92AF92BF92CF92DF92EF92FF923F
:1019E0000F931F93CF93DF93EC015B014A016901D1
:1019F0007801E881F9810284F385E02D0995C80C0E
:101A0000D91C860101501109E881F9810488F58902
:101A1000E02D9501A401B501CE010995E881F98178
:101A20000688F789E02DCE01DF91CF911F910F91AC
:101A3000FF90EF90DF90CF90BF90AF909F908F90EE
:101A40000994EF92FF920F931F93DC01ED91FC91AB
:101A500000A0F1A1E02D09951F910F91FF90EF904B
:101A600008950F931F93DC01ED91FC91068CF78D87
:101A7000E02D09951F910F9108950F931F93DC019D
:101A8000ED91FC91048CF58DE02D09951F910F913E
:101A90000895DC01ED91FC910084F185E02D09941D
:101AA0003F924F925F926F927F928F929F92AF92EE
:101AB000BF92CF92DF92EF92FF920F931F93CF933B
:101AC000DF935C017B014A016901390187E0680EFF
:101AD000711C93E0759467949A95E1F72B01400E81
:101AE000511E10E000E0312CD0E0C0E0CE01877044
:101AF0009927330C892B59F4FE0183E0F595E7957E
:101B00008A95E1F7E00FF11FE80DF91D349037FEDB
:101B10000AC021E030E0A701B5016C0F7D1F83E30F
:101B200093E00E94490D2196CC16DD06F9F68FEF61
:101B3000E81AF80A060D171DE414F504A9F6DF915A
:101B4000CF911F910F91FF90EF90DF90CF90BF90BA
:101B5000AF909F908F907F906F905F904F903F904D
:101B600008952F923F924F925F926F927F928F9241
:101B70009F92AF92BF92CF92DF92EF92FF920F931C
:101B80001F93CF93DF9300D000D000D0CDB7DEB746
:101B90003C016A013E832D83FC82EB825801A41A2A
:101BA000B50AB7FE03C0B194A194B1088D809E80A0
:101BB000861A970A97FE03C09194819491088A141B
:101BC0009B045CF0902F812F0D811E819D838E835D
:101BD0009C2D8D2D6B01692F782F0C151D055CF048
:101BE0009D818E817E836D83692F782F902F812F29
:101BF0008601C92ED82E1601201A310A2B012D81FB
:101C00003E81421A530A57FE03C051944194510831
:101C1000710137FE03C03FEFE31AF30AF594E7942E
:101C20008D819E81861797075CF5A1E0B0E0BA83AD
:101C3000A983C016D1064CF1D301ED91FC91048427
:101C4000F585E02D2B813C81A8016D817E818A1470
:101C50009B041CF04D815E81B801C3010995E41815
:101C6000F508F7FE0AC02D813E8189819A81280FEF
:101C7000391F3E832D83E20CF31C0F5F1F4FD9CF1A
:101C80002FEF3FEF3A832983D4CF26960FB6F894EF
:101C9000DEBF0FBECDBFDF91CF911F910F91FF909F
:101CA000EF90DF90CF90BF90AF909F908F907F90FC
:101CB0006F905F904F903F902F900895EF92FF921A
:101CC0000F931F93CF93DF93EC01EC80FD806E1593
:101CD0007F050CF070C057FF04C0240F351F50E083
:101CE00040E08E819F81FA01E20FF31F8E179F075C
:101CF0001CF49C01241B350B121613060CF05BC060
:101D0000922F842F8695869586958E9DD0018F9DE6
:101D1000B00D11246A0F7B1FAF8DB8A1A60FB71F9E
:101D2000477049F188E0841B482F682F70E0FB0161
:101D3000E059FF4FE491281708F063C0621B710956
:101D40002FEF30E002C0359527956A95E2F7E22340
:101D50000130110539F0B0F10230110561F58C91B7
:101D6000E82702C08C91E82BEC93941720F12C818A
:101D70003D81A20FB31FE92FE41BE83078F0023059
:101D8000110521F58E2F9C9190959C932C813D817E
:101D9000A20FB31F88508830B0F7E770EE2359F0D8
:101DA000F0E0E859FF4FE49101301105F9F010F12E
:101DB0000230110519F1DF91CF911F910F91FF9022
:101DC000EF900895E0958C91E823CECF81E0011546
:101DD000110509F480E081959E2F8C932C813D8123
:101DE000A20FB31F98509830C0F7D7CF8C91E82B33
:101DF000EC93E1CFE0958C91E823FACF8C91E82722
:101E0000F7CF0130110509F4ADCFE0F20230110532
:101E100009F4A5CFAE0DBF1DAECF0F931F93CF9387
:101E2000DF9377FF04C0260F371F70E060E0DC010E
:101E30001496CD91DC91FB01E20FF31FCE17DF0763
:101E40001CF49E01261B370B121613064CF5FA01E3
:101E500057FD3796A3E0F595E795AA95E1F7EC9F36
:101E6000D001ED9FB00DFC9FB00D11246A0F7B1FB8
:101E7000DC015F96ED91FC91E60FF71F4770552747
:101E800081E090E001C0880F4A95EAF7482F0130C1
:101E9000110559F0A8F02E0F3F1F02301105E1F097
:101EA000DF91CF911F910F9108952E0F3F1FE217E1
:101EB000F307B1F38191DF011197842B8C93F7CF56
:101EC00080952E0F3F1FE217F30751F39191DF0129
:101ED000119798239C93F7CFE217F30709F38191A9
:101EE000DF01119784278C93F7CF0F931F93FA018B
:101EF000DC0156964C9156974230E9F04330A1F1FF
:101F0000413061F514964D915C91DA01AE1BBF0B27
:101F1000FD01E21BF30B77FD0BC0DC0116964D9122
:101F20005C916417750724F4AB01BF010E940D0F8B
:101F30001F910F91089514964D915C91DA01A61BA3
:101F4000B70BBD0161507109DC0116964D915C9192
:101F5000DA01AE1BBF0BFD01E21BF30B77FDE8CFEF
:101F6000AF010E945E0EE4CF16964D915C91DA01AE
:101F7000A61BB70BBD0161507109CDCF0F931F9305
:101F8000FA01DC0156964C9156974230A9F0433045
:101F900091F1413019F514964D915C91DA01AE1B27
:101FA000BF0BFD013197F7FD04C0AB01BF010E94DB
:101FB0005E0E1F910F91089514964D915C91DA0178
:101FC000A61BB70BBD01DC0116964D915C91DA01A1
:101FD000AE1BBF0BFD013197621B730BF7FDE9CF01
:101FE000DC0116964D915C91E417F50714F7AF01EB
:101FF0000E940D0FDECF16964D915C91DA01A61B63
:10200000B70BBD01621B730BCECFFC0177FD64C023
:1020100080859185681779070CF05EC057FD5CC01C
:1020200082859385481759070CF056C086898230FF
:10203000B1F0833029F1813041F484819581841B92
:10204000950BAB01BC01615071092130310509F1DB
:1020500008F443C02230310509F463C00895848137
:102060009581DC01A61BB70BBD016150710986810A
:102070009781DC01A41BB50BAD0141505109E5CF9F
:1020800086819781861B970BBA01AC01415051099B
:10209000DCCFCA0157FD0796A3E095958795AA95D1
:1020A000E1F7A481B5818A9F90018B9F300D9A9FA3
:1020B000300D1124620F731F078CF0A1E02DE60F85
:1020C000F71F4770552721E030E001C0220F4A95E5
:1020D000EAF78081822B80830895CA0157FD079615
:1020E00033E0959587953A95E1F7A481B5818A9F6C
:1020F00090018B9F300D9A9F300D1124620F731F3A
:10210000078CF0A1E02DE60FF71F4770552781E0FF
:1021100090E001C0880F4A95EAF780959081892365
:10212000DACFCA0157FD079623E0959587952A9542
:10213000E1F7A481B5818A9F90018B9F300D9A9F12
:10214000300D1124620F731F078CF0A1E02DE60FF4
:10215000F71F4770552721E030E001C0220F4A9554
:10216000EAF780818227B7CF8EBD00000DB407FE4D
:10217000FDCF8EB50895089508958CBD9DBD089539
:1021800085ED8093BC008091BC0084FDFCCF109253
:1021900059020895613298F420915902243089F44B
:1021A0006093E401282FA4ECB1E0FC018E2F821B88
:1021B000861710F080E0089581918D93F7CF81E02C
:1021C000089582E008951092590281E080935802A8
:1021D0001092330261E082E10E94090761E083E12D
:1021E0000E940907E9EBF0E080818E7F8083808187
:1021F0008D7F808388E48093B80085E48093BC0061
:102200000895E0912E0280912D02E81730F4F0E05D
:10221000E95FFD4F808190E008958FEF9FEF089573
:1022200090912E0280912D022FEF3FEF981748F4E6
:10223000E92FF0E0E95FFD4F208130E09F5F909350
:102240002E02C901089580912D0290912E02891BC2
:10225000990B0895CF92DF92EF92FF920F931F9305
:10226000CF93DF937C01CB018A0120915A02222374
:1022700089F0EB016B01C40ED51ECC15DD0569F0AC
:102280006991D701ED91FC910190F081E02DC7019A
:102290000995F3CF642F0E94CA10C801DF91CF9136
:1022A0001F910F91FF90EF90DF90CF900895CF9303
:1022B000DF931F92CDB7DEB7698320915A022223A4
:1022C000F9F020917D02203258F021E030E0FC014D
:1022D0003383228390E080E00F90DF91CF910895C7
:1022E00080915B02E82FF0E0E45AFD4F99819083E2
:1022F0008F5F80935B0280937D0281E090E0ECCF62
:1023000061E0CE0101960E94CA10F7CF81E00C94E3
:102310007905FF920F931F93CF93DF93F82ED92F58
:10232000C62F8091500390915103009709F452C039
:102330002091540331E030935A0220937C02109292
:102340005B0210927D02DC01ED91FC910190F08125
:10235000E02D60E009950F2D1D2FD1E0FF24F394AF
:10236000C1508091500390915103CF3F61F1D03221
:10237000C8F00E94861180915003909151032091E2
:102380005403F0925A0220937C0210925B02109246
:102390007D02DC01ED91FC910190F081E02D60E087
:1023A0000995D1E08091500390915103F801649117
:1023B000DC01ED91FC910190F081E02D0995DF5F4A
:1023C0000F5F1F4FCDCFDF91CF911F910F91FF90E6
:1023D0000C948611E0916003F091610390818091EB
:1023E00066038095892380830F2D1D2FC15008F42B
:1023F00038C0F801849120914E0330914F03232B74
:1024000029F00E94B4100F5F1F4FF0CF28E030E09A
:1024100040E8E0915C03F0915D0390916403582FD4
:102420005423D9F05081952B9083E0915E03F09175
:102430005F03908150916503952B9083E0915E033B
:10244000F0915F035081909165039095952390835F
:10245000469521503109E9F6D6CF508190959523C4
:10246000E3CFDF91CF911F910F91FF9008951F93BC
:10247000CF93DF93EC018D8D9E8D009721F1162F68
:1024800029A131E030935A0220937C0210925B0222
:1024900010927D02DC01ED91FC910190F081E02D24
:1024A00060E009958D8D9E8DDC01ED91FC91019090
:1024B000F081E02D612F09958D8D9E8DDF91CF915B
:1024C0001F910C948611ADA5BEA59C918BA98095FA
:1024D00089238C938B8D9C8D892B31F0862FDF91F6
:1024E000CF911F910C94B41028E030E080E8A9A5AA
:1024F000BAA599A9462F4823C1F04C91942B9C93DF
:10250000ABA5BCA59C914AA9942B9C93ABA5BCA55B
:102510004C919AA9909594239C93869521503109CA
:1025200031F7DF91CF911F9108954C9190959423AD
:10253000E6CFEF92FF920F931F93CF93DF9380919B
:10254000500390915103892B09F493C020916A03A1
:1025500030916B0340916C0350916D0360E074E225
:1025600084EF90E00E94EC1F20513109410951098C
:1025700056954795379527952093B80065E084E9EF
:102580009AE00E94891160913703615083E393E0E0
:102590000E9437122091390330913A03C9010796FE
:1025A00097FD079623E0959587952A95E1F7209169
:1025B000370330913803829F8001839F100D929FD3
:1025C000100D1124C0915203D091530380915003F8
:1025D000909151030C0F1D1F009709F489C02091A1
:1025E000540331E030935A0220937C0210925B0234
:1025F00010927D02DC01ED91FC910190F081E02DC3
:1026000060E40995FF24F394EE24E3948091500351
:10261000909151030C171D0709F442C0BFE1BF158B
:10262000D0F40E9486118091500390915103209123
:102630005403E0925A0220937C0210925B021092A3
:102640007D02DC01ED91FC910190F081E02D60E4D0
:102650000995FF24F394809150039091510369915F
:10266000DC01ED91FC910190F081E02D0995F3944E
:10267000CDCF80914E0390914F03892B31F0809103
:102680006803909169030E94BD10E0916203F0918C
:1026900063039081809167038095892380836ECF47
:1026A0000E9486118091500390915103892B09F467
:1026B00060C020916E0330916F0340917003509180
:1026C000710360E074E284EF90E00E94EC1F2051FF
:1026D000310941095109569547953795279520931A
:1026E000B800DF91CF911F910F91FF90EF90089567
:1026F000E0916003F0916103808190916603892BE2
:1027000080830C171D0771F2899120914E0330913F
:102710004F03232B19F00E94B410F3CF28E030E0D0
:1027200040E8E0915C03F0915D0390916403582FC1
:102730005423D9F05081952B9083E0915E03F09162
:102740005F03908150916503952B9083E0915E0328
:10275000F0915F035081909165039095952390834C
:10276000469521503109E9F6CCCF508190959523BB
:10277000E3CFE0916203F09163038081909167035E
:10278000892B8083AECF1F93CF93DF93EC01162F5D
:102790008D8D9E8D892BB1F12FA938AD49AD5AADE4
:1027A00060E074E284EF90E00E94EC1F2051310958
:1027B0004109510956954795379527952093B800BB
:1027C00066EA111167EACE010E9437128D8D9E8D47
:1027D000892B41F12BAD3CAD4DAD5EAD60E074E2B7
:1027E00084EF90E00E94EC1F20513109410951090A
:1027F00056954795379527952093B800DF91CF914F
:102800001F9108958B8D9C8D892B21F08DA99EA9F8
:102810000E94BD10EFA5F8A990818CA9809589230D
:102820008083CECFEFA5F8A980819CA9892B8083D6
:10283000E5CFCF93DF93EC018B818823A9F08981C9
:102840009A81288131E030935A0220937C021092C1
:102850005B0210927D020E94861191E0811190E04E
:10286000892FDF91CF91089510922E0210922D02A0
:1028700010925B0210927D020E94E31081E08B8334
:10288000CE010E941914982F8111D9CFE9CF90E081
:1028900080E008956F927F928F929F92AF92BF9245
:1028A000CF92DF92EF92FF920F931F93CF93DF931C
:1028B00000D01F92CDB7DEB7FC017B01642E96815C
:1028C000878199838A83008111810115110509F49B
:1028D000A4C0C184D12CD80114968D919C918C15E3
:1028E0009D0598F480E00F900F900F90DF91CF91AD
:1028F0001F910F91FF90EF90DF90CF90BF90AF901E
:102900009F908F907F906F900895F80181819281C0
:10291000208131E030935A0220937C0210925B02B6
:1029200010927D02DC01ED91FC910280F381E02D9B
:10293000A601BE016F5F7F4F0995C816D90691F6B3
:1029400080E00E9479058111CDCFC62CD12CF801F1
:10295000248135812C153D0528F290915902911161
:10296000FCCFD8019C91462D413208F040E221E095
:1029700020935902209358023FEF30935702109250
:102980005602340F309355022093340220913402C2
:10299000990F922B90933402909133029130B9F5B4
:1029A00010923302909134029093BB0095EC909377
:1029B000BC00909159029130E1F390915602941726
:1029C00010F440915602E5E3F2E0A7E0B2E0841390
:1029D00020C010922E0280932D028C151D0409F048
:1029E00081CF5701C5018E199F098C159D0508F0EF
:1029F00084C0F80181819281DC01ED91FC91028417
:102A0000F385E02D0995F50181935F01EBCF95EEFC
:102A1000CECF91919D938F5FDACF02811381011503
:102A2000110509F45FCF2481358121153105C9F5E0
:102A300090689983712CC184D12CD8018D919C917F
:102A40001197892B39F01296ED91FC91808191813B
:102A50000E94BD1060E0F80183850E940907CE0145
:102A600001964C015C01C501881999098C159D05D9
:102A700010F16701BB24BA94C6018E199F0986150F
:102A80009705A8F5BB82D8018D919C91892B41F1C6
:102A9000CE0103960E94D2058B81F60181936F01CE
:102AA000EBCF2230310511F49F77C3CF21303105B0
:102AB00009F6906CBECFD5018D915D018B83F80135
:102AC00080819181892B29F0CE0103960E94D20545
:102AD000CACFBE016D5F7F4FC8010E946007C3CFA0
:102AE000BE016D5F7F4FC8010E946007D5CF61E0D6
:102AF000D8011B968C910E94090781E0F4CE2091A9
:102B0000390330913A03C901079697FD079623E0F0
:102B1000959587952A95E1F72091370330913803F1
:102B2000829FA001839F500D929F500D112470E051
:102B300060E080915203909153030C943E210E94D7
:102B40003921FB0101900020E9F73197AF01461BC5
:102B5000570BDC01ED91FC910280F381E02D09948B
:102B60008F929F92AF92BF92EF92FF920F931F931B
:102B7000CF93DF93CDB7DEB7A1970FB6F894DEBF42
:102B80000FBECDBF7C01FA01CB0119A2223008F49F
:102B90002AE08E010F5D1F4F822E912CB12CA12CAB
:102BA000BF01A50194010E94EC1FF901CA016A301E
:102BB0000CF5605DD8016E938D01232B242B252B02
:102BC00079F790E080E0109721F0BD01C7010E94E5
:102BD000A115A1960FB6F894DEBF0FBECDBFDF9151
:102BE000CF911F910F91FF90EF90BF90AF909F906A
:102BF0008F900895695CDECF2F923F924F925F9243
:102C00006F927F928F929F92AF92BF92CF92DF92FC
:102C1000EF92FF921F93CF93DF93EC016A017B0148
:102C2000722EAB019601CB01B6010E94E71F66E54B
:102C300071E0811126C046015701E894B7F82FEFE3
:102C40003FEF4FE75FE7C501B4010E94E71F811125
:102C50000CC02FEF3FEF4FE75FE7C501B4010E94C3
:102C60001D1E6AE571E0181664F02FEF3FEF4FE785
:102C70005FE4C701B6010E94751F1816B4F46EE533
:102C800071E0CE01DF91CF911F91FF90EF90DF9027
:102C9000CF90BF90AF909F908F907F906F905F90FC
:102CA0004F903F902F900C94A1152FEF3FEF4FE7DF
:102CB0005FECC701B6010E941D1E87FDE0CF20E03A
:102CC00030E0A901C701B6010E941D1E312C212C44
:102CD00087FF0DC0E881F9810190F081E02D6DE260
:102CE000CE0109951C01F7FAF094F7F8F09410E082
:102CF00060E070E080E09FE3711641F020E030E09A
:102D000040E251E40E94221E1F5FF6CFA701960108
:102D10000E94B11D2B013C010E94941E4B015C01DD
:102D20002AE0BC01A401CE010E94B0157C01E20C96
:102D3000F31C1123E1F1C501B4010E94C31E9B01E4
:102D4000AC01C301B2010E94B01D4B015C01E881DE
:102D5000F9810190F081E02D6EE2CE010995E80E37
:102D6000F91E115020F120E030E040E251E4C501AD
:102D7000B4010E947A1F2B013C010E94941E4B015A
:102D8000B12CA12C2AE0B501A401CE010E94B015FE
:102D9000E80EF91EC501B4010E94C31E9B01AC01DF
:102DA000C301B2010E94B01D4B015C01DACFC70123
:102DB000DF91CF911F91FF90EF90DF90CF90BF9068
:102DC000AF909F908F907F906F905F904F903F90CB
:102DD0002F9008950F931F93CF93DF93EC010E94E0
:102DE000A1158C0162E671E0CE010E94A115800F51
:102DF000911FDF91CF911F910F9108951F920F9214
:102E00000FB60F9211242F933F934F935F936F93BD
:102E10007F938F939F93AF93BF93EF93FF938EE72F
:102E200092E00E947A06FF91EF91BF91AF919F913E
:102E30008F917F916F915F914F913F912F910F9063
:102E40000FBE0F901F9018951F920F920FB60F9202
:102E500011242F938F939F93EF93FF93E0918E0212
:102E6000F0918F028081E0919402F091950282FDB1
:102E70001BC09081809197028F5F8F732091980281
:102E8000821741F0E0919702F0E0E258FD4F958FF4
:102E900080939702FF91EF919F918F912F910F90C7
:102EA0000FBE0F901F9018958081F4CF1F920F9244
:102EB0000FB60F9211242F933F938F939F93AF934D
:102EC000BF9380912F0290913002A0913102B09176
:102ED00032023091270223E0230F2D3758F5019657
:102EE000A11DB11D2093270280932F0290933002E1
:102EF000A0933102B093320280912802909129026E
:102F0000A0912A02B0912B020196A11DB11D8093C0
:102F1000280290932902A0932A02B0932B02BF911A
:102F2000AF919F918F913F912F910F900FBE0F9076
:102F30001F90189526E8230F0296A11DB11DD2CF30
:102F40001F920F920FB60F9211242F933F934F931E
:102F50005F936F937F938F939F93AF93BF93EF9301
:102F6000FF938091B900887F803609F44AC0F0F55C
:102F7000883209F4A5C018F5803109F499C0B8F475
:102F8000882309F4F2C0883009F492C0FF91EF91D0
:102F9000BF91AF919F918F917F916F915F914F9171
:102FA0003F912F910F900FBE0F901F901895883171
:102FB00009F486C0803251F78093570214C08034E0
:102FC00009F49BC040F48033B9F38833F9F6809359
:102FD000570285ECAEC0803509F483C0883509F40A
:102FE00094C0883499F60E94C010D0CF883909F473
:102FF0008AC038F5883729F050F4883611F08037C8
:1030000029F683E0809359021092060255C0883851
:1030100009F479C0803919F0803809F0B7CF809170
:103020000602803208F06FC0E091060281E08E0F48
:10303000809306028091BB00F0E0EA51FE4F80834E
:103040003BC0803B39F0D0F4803A09F477C0883A2D
:1030500009F09CCF84E0809359021092E501109210
:10306000E401F0E0E0E009958091E40181110FC0F6
:1030700081E08093E4011092C40109C0803C09F40E
:10308000A8CF883C09F4A5CF883B09F07FCFE09119
:10309000E50181E08E0F8093E501F0E0EC53FE4FF7
:1030A00080818093BB009091E5018091E40129C06B
:1030B000809134028093BB0085EC8093BC0066CF86
:1030C0009091560280915502981758F5E09156025A
:1030D00081E08E0F80935602F0E0EB5CFD4F808123
:1030E000E9CFE091560281E08E0F809356028091E5
:1030F000BB00F0E0EB5CFD4F808390915602809125
:1031000055029817C8F285E8D8CFE091560281E0C1
:103110008E0F809356028091BB00F0E0EB5CFD4F78
:1031200080838091580281115ECF81E080933302C9
:1031300084EA8093BC001092590228CF8091060245
:10314000803230F4E0910602F0E0EA51FE4F108246
:103150000E94C0106091060270E086EE91E0F0E0FF
:10316000E0E009951092060234CF109257023BCF4F
:10317000EEE7F2E01382128248EE53E060E070E086
:1031800044835583668377838AE091E091838083CB
:1031900085EC90E09587848784EC90E0978786871C
:1031A00080EC90E0918B808B81EC90E0938B828B14
:1031B00082EC90E0958B848B86EC90E0978B868BED
:1031C000118E128E138E148EA7E2B3E013961C920A
:1031D0001E92129714964D935D936D937C9317975F
:1031E0008CE191E011969C938E93E3E3F3E01382DC
:1031F000128220E830E03583248380E290E09783D8
:1032000086833187208793878287168A158614865E
:103210001786168681E0858B848B2FEF3FEF338BEB
:10322000228B318B208B878B108E128E118E8EE22B
:1032300091E091838083148E138EB68FA58F10A298
:10324000178E8FEF84A385A386A387A380A780E52D
:1032500085AB16AA80E89AE1A6E0B0E087AB90AF14
:10326000A1AFB2AF80EA96E8A1E0B0E083AF94AF3F
:10327000A5AFB6AFEBE1F3E0178216821186108698
:10328000138612860895CF93DF93CDB7DEB7A89744
:103290000FB6F894DEBF0FBECDBF789484B58260C0
:1032A00084BD84B5816084BD85B5826085BD85B5EA
:1032B000816085BD80916E00816080936E00109268
:1032C00081008091810082608093810080918100E3
:1032D0008160809381008091800081608093800074
:1032E0008091B10084608093B1008091B0008160D2
:1032F0008093B00080917A00846080937A008091FE
:103300007A00826080937A0080917A008160809355
:103310007A0080917A00806880937A001092C100D0
:10332000E0918E02F0918F0202E00083E0918A0228
:10333000F0918B021082E0918C02F0918D0280E17D
:10334000808310929602E0919202F091930286E0BF
:103350008083E0919002F09191028081806180836E
:10336000E0919002F0919102808188608083E091E9
:103370009002F0919102808180688083E0919002B8
:10338000F091910280818F7D808365E671E08EE708
:1033900092E00E94EA1686E090E00E9414207C01F0
:1033A00088E4D7018C9387E293E012969C938E93E6
:1033B000119713961C92139780E290E015969C93B8
:1033C0008E931497F0922203E092210310922E0222
:1033D00010922D0210925B0210927D020E94E31067
:1033E00011E0F7011383C7010E941914882309F41F
:1033F00087C08091210390912203188A198A1A8A22
:103400001B8A9A8389831C821B821A878FE090E033
:1034100098878F831B87098742E0BE016B5D7F4FD2
:10342000CE0101960E944A148DA19EA18130974140
:1034300009F066C085E790E09093200380931F0316
:1034400083E190E00E941420FC01E0902103F090C1
:1034500022031786108A118A128AF182E08213826F
:103460001282118781E090E097838683128700871C
:10347000F0932403E093230383E190E00E9414205F
:10348000FC011786108A118A128AF182E082138267
:103490001282118717821682128700879093260363
:1034A000809325036BE771E08EE792E00E94EA16B5
:1034B0008091520390915303892B79F10E947F15DB
:1034C0002091390330913A0380913703909138036A
:1034D000213231050CF058C0B9016052710977FFF3
:1034E00002C06F5F7F4F759567958357910997FD70
:1034F000019600E210E023E730E04EE955E057C0C6
:1035000069E871E08EE792E00E94EA166AE070E0F6
:1035100080E090E00E943708F9CF20913903309184
:103520003A03C901079697FD0796B3E095958795ED
:10353000BA95E1F72091370330913803AC01429FEF
:10354000C001439F900D529F900D11240E941420A2
:103550009093530380935203892B09F0AFCF0EE36E
:103560001AE0F8016491662341F08EE792E00E9430
:103570009C060F5F1F4F892BA1F762E671E08EE773
:1035800092E00E94A115FFCFB9016054710977FF45
:1035900002C06F5F7F4F759567958255910997FDC2
:1035A000019600E410E022E530E04EE757E0959503
:1035B00087950E94500D82E08093550380915003BF
:1035C00090915103892B09F440C18CE380935403FB
:1035D00010922E0210922D0210925B0210927D0228
:1035E0000E94E31080915B0387FD1DC00E94DC05F3
:1035F00061E080915B030E94090761E070E080E078
:1036000090E00E94370860E080915B030E94090708
:103610006AE070E080E090E00E94370861E080910D
:103620005B030E9409078091500390915103892BFD
:1036300009F4C2C120916A0330916B0340916C037D
:1036400050916D0360E074E284EF90E00E94EC1F03
:1036500020513109410951095695479537952795CC
:103660002093B80064E08AE995E00E948911609196
:103670003903615083E393E00E94371264E086E9E6
:1036800095E00E9489118091550360E1813009F035
:1036900064E183E393E00E94371264E082E995E0FD
:1036A0000E9489118FE88093720380913703909173
:1036B00038038038910509F098C1809139039091C1
:1036C0003A038034910509F0A0C1809155038130FF
:1036D00009F089C18FE98093720312E16AED83E3F7
:1036E00093E00E943712612F83E393E00E94371228
:1036F00061E883E393E00E9437126091720383E3F1
:1037000093E00E94371269ED83E393E00E94371241
:103710008091550362E2813009F061EF83E393E029
:103720000E94371266E08CE895E00E948911809132
:10373000500390915103892B09F46BC120916E03C2
:1037400030916F03409170035091710360E074E217
:1037500084EF90E00E94EC1F20513109410951098A
:1037600056954795379527952093B8000E947F1569
:103770000E94991281E0809347038093480381E07F
:1037800090E0909346038093450390934403809385
:10379000430360E083E393E00E946A08AE01435F65
:1037A0005F4F58A74FA3F4E2CF2ED12CE12CF12C80
:1037B000ADE08A2E912CA12CB12CB0E02B2EB0E0E4
:1037C0003B2E0E947F151092400310923F031092EF
:1037D0004203109241038FB7F89440902F0250900B
:1037E000300260903102709032028FBF0091250349
:1037F00010912603B801655F7F4FD80118964C9150
:10380000C8010E944A14882309F412C1F8012085D6
:1038100030E050E040E060E070E0CB014217530739
:103820000CF009C1982F872F762F6627D8011A969A
:10383000EC91E111F8C0F901E41BF50BE00FF11F69
:10384000E2856E2B4F5F5F4FE9CF809159030E9455
:10385000DC0580915A030E94DC0580915903082EF3
:10386000000C990BFC01E459F54FE491F0E0EE0FE8
:10387000FF1FE85AF54F259134913093610320934F
:103880006003FC01E058F54FE491E09366038091FA
:103890005A03082E000C990BFC01E459F54FE491F2
:1038A000F0E0EE0FFF1FE85AF54FA591B491B093E9
:1038B0006303A0936203FC01E058F54FE491E093A9
:1038C00067038C91E82BEC9380914E0390914F030A
:1038D000892B89F11FB7F89480912C02811124C0A3
:1038E000E6E7FAE08491EAE8FAE09491E82FF0E064
:1038F000EE0FFF1FEE59F54FA591B491EC91E9231E
:1039000021F461E08AE00E9409078AE00E94DC0558
:103910008CB580618CBD8CB580648CBD8DE00E94BF
:10392000DC058BE00E94DC0580912C028F5F809388
:103930002C021FBF57CE809157030E94DC05809157
:1039400058030E94DC0580915703082E000C990B48
:10395000FC01E459F54FE491F0E0EE0FFF1FE85A47
:10396000F54F2591349130935D0320935C03FC0166
:10397000E058F54FE491E093640380915803082EDA
:10398000000C990BFC01E459F54FE491F0E0EE0FC7
:10399000FF1FE85AF54FA591B491B0935F03A09330
:1039A0005E03FC01E058F54FE491E09365038C91D0
:1039B000E095E823EC9316CE80914E0390914F034F
:1039C000892B31F080916803909169030E94BD10AA
:1039D000E0916203F0916303908180916703809589
:1039E000892380833FCE8FEC76CE8036910569F4B3
:1039F0008091390390913A03409739F480915503AF
:103A0000813029F480E18093720312E067CE8FEA5F
:103A1000FACFE0916203F091630380819091670394
:103A2000892B8083A3CEF801E40FF51FE38509CF2E
:103A30006FEF7FEFCB010E94C31E60931B03709357
:103A40001C0380931D0390931E03EFA1F8A528E1AA
:103A500011922A95E9F7C982DA82EB82FC82009101
:103A60001F031091200330E020E00D831E832F837D
:103A7000388789869A86AB86BC86498A5A8A6B8A39
:103A80007C8A20E030E040E05CE30E947A1F6D8B8E
:103A90007E8B8F8B988F64EA71E08EE792E00E94B4
:103AA000A1154D895E896F89788D22E08EE792E0BD
:103AB0000E94FC1562EB71E08EE792E00E94EA162C
:103AC00064E671E08EE792E00E94EA166DEB71E029
:103AD00083E393E00E94A1154D895E896F89788DFB
:103AE00022E083E393E00E94FC156AEB71E083E33C
:103AF00093E00E94EA160E9499122114310409F4FD
:103B000060CE0E946606882309F45BCE0E94000006
:103B100058CE8091210390912203009711F00E94CA
:103B2000B0208091230390912403009711F00E940C
:103B3000B0208091250390912603009711F00E94F8
:103B4000B0208EE291E09093340380933303809110
:103B5000520390915303009711F00C94B0200895F4
:103B60005058BB27AA270E94C81D0C943B1F0E94D7
:103B70002D1F38F00E94341F20F039F49F3F19F4B4
:103B800026F40C942A1F0EF4E095E7FB0C94241FF6
:103B9000E92F0E944C1F58F3BA1762077307840776
:103BA000950720F079F4A6F50C946E1F0EF4E095BD
:103BB0000B2EBA2FA02D0B01B90190010C01CA01E7
:103BC000A0011124FF27591B99F0593F50F4503E92
:103BD00068F11A16F040A22F232F342F4427585F84
:103BE000F3CF469537952795A795F0405395C9F79C
:103BF0007EF41F16BA0B620B730B840BBAF0915054
:103C0000A1F0FF0FBB1F661F771F881FC2F70EC0F2
:103C1000BA0F621F731F841F48F4879577956795C5
:103C2000B795F7959E3F08F0B0CF9395880F08F0B1
:103C30009927EE0F9795879508950E94001F08F425
:103C400081E008950E94361E0C943B1F0E94341F91
:103C500058F00E942D1F40F029F45F3F29F00C948A
:103C6000241F51110C946F1F0C942A1F0E944C1F8B
:103C700068F39923B1F3552391F3951B550BBB279B
:103C8000AA2762177307840738F09F5F5F4F220FE0
:103C9000331F441FAA1FA9F335D00E2E3AF0E0E8D7
:103CA00032D091505040E695001CCAF72BD0FE2F21
:103CB00029D0660F771F881FBB1F261737074807B5
:103CC000AB07B0E809F0BB0B802DBF01FF2793586D
:103CD0005F4F3AF09E3F510578F00C94241F0C94EE
:103CE0006F1F5F3FE4F3983ED4F386957795679511
:103CF000B795F7959F5FC9F7880F911D96958795A2
:103D000097F90895E1E0660F771F881FBB1F6217C0
:103D100073078407BA0720F0621B730B840BBA0B7E
:103D2000EE1F88F7E09508950E94541F88F09F5772
:103D300098F0B92F9927B751B0F0E1F0660F771FCF
:103D4000881F991F1AF0BA95C9F714C0B13091F0C5
:103D50000E946E1FB1E008950C946E1F672F782F9C
:103D60008827B85F39F0B93FCCF38695779567958A
:103D7000B395D9F73EF490958095709561957F4FF6
:103D80008F4F9F4F0895E89409C097FB3EF490959C
:103D90008095709561957F4F8F4F9F4F9923A9F024
:103DA000F92F96E9BB279395F695879577956795B3
:103DB000B795F111F8CFFAF4BB0F11F460FF1BC0F7
:103DC0006F5F7F4F8F4F9F4F16C0882311F096E98A
:103DD00011C0772321F09EE8872F762F05C0662338
:103DE00071F096E8862F70E060E02AF09A95660FF1
:103DF000771F881FDAF7880F9695879597F90895AA
:103E0000990F0008550FAA0BE0E8FEEF16161706EB
:103E1000E807F907C0F012161306E407F50798F053
:103E2000621B730B840B950B39F40A2661F0232B6C
:103E3000242B252B21F408950A2609F4A140A695E8
:103E40008FEF811D811D089597F99F6780E870E0CD
:103E500060E008959FEF80EC089500240A94161600
:103E6000170618060906089500240A941216130668
:103E7000140605060895092E0394000C11F48823F6
:103E800052F0BB0F40F4BF2B11F460FF04C06F5F12
:103E90007F4F8F4F9F4F089557FD9058440F551FE8
:103EA00059F05F3F71F04795880F97FB991F61F0BC
:103EB0009F3F79F087950895121613061406551F33
:103EC000F2CF4695F1DF08C0161617061806991F9F
:103ED000F1CF86957105610508940895E894BB2794
:103EE00066277727CB0197F908950E94001F08F4F1
:103EF0008FEF08950E948D1F0C943B1F0E942D1F71
:103F000038F00E94341F20F0952311F00C94241FE8
:103F10000C942A1F11240C946F1F0E944C1F70F3E5
:103F2000959FC1F3950F50E0551F629FF001729F5E
:103F3000BB27F00DB11D639FAA27F00DB11DAA1F6D
:103F4000649F6627B00DA11D661F829F2227B00DBA
:103F5000A11D621F739FB00DA11D621F839FA00D45
:103F6000611D221F749F3327A00D611D231F849F95
:103F7000600D211D822F762F6A2F11249F575040EC
:103F80009AF0F1F088234AF0EE0FFF1FBB1F661F67
:103F9000771F881F91505040A9F79E3F510580F030
:103FA0000C94241F0C946F1F5F3FE4F3983ED4F3EE
:103FB000869577956795B795F795E7959F5FC1F7D4
:103FC000FE2B880F911D9695879597F908950E946D
:103FD000001F880B990B0895A1E21A2EAA1BBB1B88
:103FE000FD010DC0AA1FBB1FEE1FFF1FA217B307C5
:103FF000E407F50720F0A21BB30BE40BF50B661FDB
:10400000771F881F991F1A9469F76095709580959E
:1040100090959B01AC01BD01CF010895EE0FFF1FEC
:104020000590F491E02D09940F931F93CF93DF93A4
:104030008230910510F482E090E0E0917503F091F8
:10404000760330E020E0B0E0A0E0309799F421154D
:10405000310509F44AC0281B390B24303105D8F545
:104060008A819B816115710589F1FB0193838283AC
:10407000FE0111C040815181028113814817590707
:10408000E0F04817590799F4109761F012960C93D5
:10409000129713961C933296CF01DF91CF911F9107
:1040A0000F9108950093750310937603F4CF2115B3
:1040B000310551F04217530738F0A901DB019A018D
:1040C000BD01DF01F801C1CFEF01F9CF9093760375
:1040D00080937503CDCFFE01E20FF31F819391937F
:1040E0002250310939832883D7CF2091730330912F
:1040F0007403232B41F4209102013091030130938A
:104100007403209373032091000130910101211564
:10411000310541F42DB73EB740910401509105019E
:10412000241B350BE0917303F0917403E217F3073E
:10413000A0F42E1B3F0B2817390778F0AC014E5F17
:104140005F4F2417350748F04E0F5F1F50937403DD
:1041500040937303819391939FCFF0E0E0E09CCF75
:10416000CF93DF930097E9F0FC013297138212821C
:10417000A0917503B0917603ED0130E020E0109737
:10418000A1F420813181820F931F2091730330911C
:1041900074032817390709F061C0F0937403E093A2
:1041A0007303DF91CF910895EA01CE17DF07E8F599
:1041B0004A815B819E0141155105B1F7E901FB83FD
:1041C000EA8349915991C40FD51FEC17FD0761F49B
:1041D000808191810296840F951FE90199838883DC
:1041E000828193819B838A83F0E0E0E012968D9137
:1041F0009C9113970097B9F52D913C911197CD01A2
:104200000296820F931F2091730330917403281735
:10421000390739F6309751F51092760310927503ED
:10422000B0937403A0937303BCCFD383C283408144
:104230005181840F951FC817D90761F44E5F5F4FF6
:1042400088819981480F591F518340838A819B81BE
:10425000938382832115310509F0B0CFF093760363
:10426000E09375039ECFFD01DC01C0CF1382128263
:10427000D7CF81E090E0F8940C944521DC0101C097
:104280006D9341505040E0F7089515E0CEE4D5E03D
:1042900004C0FE010E940E202196CF34D107C9F739
:1042A000F894FFCF000077038000000000009C0618
:1042B000FC052906E9065A0638064C0600000000EF
:1042C00057112A114714FB05231110110111000089
:1042D0000000A40AFC054714BB100510FB05490D9E
:1042E000210D3D0D310DB10DFB056A08C313750F8E
:1042F000BE0F6A0C4D0CD50B760B6E616E00696EAD
:1043000066006F7666000D0A004164616672756929
:104310007420544D5031313720746573742100542A
:104320004D5031313720466F756E6421004661690A
:104330006C656420746F2066696E6420544D503142
:10434000313720636869700054656D7065726174FF
:104350007572653A20002064656772656573204355
:084360000054656D703A200065
:107E0000112484B714BE81FFF0D085E080938100F7
:107E100082E08093C00088E18093C10086E0809377
:107E2000C20080E18093C4008EE0C9D0259A86E02C
:107E300020E33CEF91E0309385002093840096BBD3
:107E4000B09BFECF1D9AA8958150A9F7CC24DD24C4
:107E500088248394B5E0AB2EA1E19A2EF3E0BF2EE7
:107E6000A2D0813461F49FD0082FAFD0023811F036
:107E7000013811F484E001C083E08DD089C08234E0
:107E800011F484E103C0853419F485E0A6D080C0E4
:107E9000853579F488D0E82EFF2485D0082F10E0AE
:107EA000102F00270E291F29000F111F8ED06801E7
:107EB0006FC0863521F484E090D080E0DECF843638
:107EC00009F040C070D06FD0082F6DD080E0C81688
:107ED00080E7D80618F4F601B7BEE895C0E0D1E017
:107EE00062D089930C17E1F7F0E0CF16F0E7DF06D8
:107EF00018F0F601B7BEE89568D007B600FCFDCFD4
:107F0000A601A0E0B1E02C9130E011968C91119780
:107F100090E0982F8827822B932B1296FA010C0160
:107F200087BEE89511244E5F5F4FF1E0A038BF0790
:107F300051F7F601A7BEE89507B600FCFDCF97BE46
:107F4000E89526C08437B1F42ED02DD0F82E2BD052
:107F50003CD0F601EF2C8F010F5F1F4F84911BD097
:107F6000EA94F801C1F70894C11CD11CFA94CF0C13
:107F7000D11C0EC0853739F428D08EE10CD085E9AC
:107F80000AD08FE07ACF813511F488E018D01DD067
:107F900080E101D065CF982F8091C00085FFFCCF94
:107FA0009093C60008958091C00087FFFCCF809118
:107FB000C00084FD01C0A8958091C6000895E0E648
:107FC000F0E098E1908380830895EDDF803219F02E
:107FD00088E0F5DFFFCF84E1DECF1F93182FE3DFCA
:107FE0001150E9F7F2DF1F91089580E0E8DFEE27F6
:047FF000FF270994CA
:027FFE00040479
:00000001FF
